:100000000E28B623EC260228FE00030EF800040892
:10001000F9000A08FA007F08FB00812A0F28F9205E
:10002000BF00FA20C000FB20C100FC20C200FD2060
:10003000C300FE20C400B401B501B601B701B80188
:10004000B901BA01BB01BC01BD01BE01FC018301C4
:100050000128A900D9280130A700250A312803105A
:10006000A70DFF3E031D2F282708FF3AFF007F083A
:1000700083160317880549282508A000A10129082F
:10008000332408002508A000A101A10A290833246F
:100090000800831203132608A700A8012808003AC5
:1000A00003195328EC2827080A3A03193C28013A77
:1000B00003194228EC282508031D6028EF307C280E
:1000C0002503031D6528FB307C2802302506031D0F
:1000D0006B28FE307C2803302506031D7128FD3077
:1000E0007C2804302506031D7728F7307C2805304E
:1000F0002506031DA728DF30FF007F08831603179E
:100100008905A7282508A000A10129083324080093
:100110002508A000A101A10A290833240800250808
:10012000A000A101A10A2908332401308312A700ED
:10013000250A9C280310A70DFF3E031D9A282708B7
:10014000FF007F08831696040B108B15080083129E
:1001500003132608A700A8012808003A0319B128AC
:10016000EC2827080A3A03198228013A031988283B
:10017000073A03198F28EC282508A000A1012908B7
:10018000332408002508A000A101A10A290833246E
:1001900008002608A700A8012808003A0319D1285A
:1001A000EC2827080A3A0319BC28013A0319C22887
:1001B000EC282908A700A8012808003A0319E1281B
:1001C000EC282708003A03192B28013A03195B2869
:1001D000033A0319C928EC280800BF30FF007F0844
:1001E00083129F051F17803083169F0083121F14F0
:0E01F00008000734003418342C343E34C83470
:10020000FF1B0A2983137F1883170008840A031928
:10021000FF0A080001308A000408840A82070034BB
:1002200050346C3465346134733465342034433471
:100230006F346C346C34653463347434203420345B
:1002400020342034003459346F34753472342034FF
:100250004434723469346E346B34213420342034A5
:1002600020342034203400344334683461346E3414
:100270006734653420346434753465343A3420345A
:10028000203420342034203400344434723469342F
:100290006E346B34203444346934733470346534D0
:1002A0006E34733469346E3467340034303420343F
:1002B000203420342034203420342034203420349E
:1002C00020342034203420342034003449346E3437
:1002D0007334653472347434203443346F34693485
:1002E0006E3473343A3420342034003443346F3461
:1002F0006C34613420343834303470342034203459
:1003000020342034203420340034573461347434A1
:100310006534723420343534303470342034203431
:1003200020342034203400344F34723461346E343D
:10033000673465342034363430347034203420341B
:10034000203420340034533465346C3465346334E1
:10035000743420344434723469346E346B343A3437
:1003600000344C3465346D346F346E34613464342D
:100370006534203438343034703400342E342E3424
:100380002E342E340034A200221CDB290130A000C0
:1003900037080739013ECE290310A00DFF3E031D8B
:1003A000CC292008FF00340884008317351C8313F0
:1003B0007F088004F0290130A00037080739013E8A
:1003C000E3290310A00DFF3E031DE1292008FF3A99
:1003D000FF00340884008317351C83137F088005D1
:1003E000A21C0A2A0130A000370CA100A10C210C8C
:1003F0000739013EFD290310A00DFF3E031DFB2917
:100400002008FF00340884008317351C83137F08FD
:100410008004222A0130A000370CA100A10C210C7D
:100420000739013E152A0310A00DFF3E031D132AB4
:100430002008FF3AFF00340884008317351C83131B
:100440007F088005221D392A0130A00038080739AD
:10045000013E2C2A0310A00DFF3E031D2A2A20086E
:10046000FF00340884008317351C83137F08800441
:100470004E2A0130A00038080739013E412A0310F6
:10048000A00DFF3E031D3F2A2008FF3AFF0034085D
:1004900084008317351C83137F088005A21D682AFA
:1004A0000130A000380CA100A10C210C0739013E3D
:1004B0005B2A0310A00DFF3E031D592A2008FF00F0
:1004C000340884008317351C83137F0880040800D8
:1004D0000130A000380CA100A10C210C0739013E0D
:1004E000732A0310A00DFF3E031D712A2008FF3A56
:1004F000FF00340884008317351C83137F088005B0
:1005000008000B1CF12A83120313061C952AA52A46
:1005100003303C020318912A0130FF007F08BC071A
:10052000EF2ABC01EF2AFF30DE2A4408F600F7016B
:100530007708003A03199D2AEF2A7608C93A031969
:10054000882A033A0319932AEF2A861CCA2ADA2A30
:10055000CA30C400B22A0830B02A0630B02A0530AA
:10056000BB00EF2A3C08F600F7017708003A0319B0
:10057000BA2AEF2A7608003A0319AB2A013A03197E
:10058000AB2A033A0319AD2A013A0319AF2AEF2A1D
:10059000FE30DE2A4408F600F7017708003A031916
:1005A000D22AEF2A7608C93A0319A82A033A03196E
:1005B000C82AEF2A061DE22AEF2AFB30FF007F0837
:1005C000BB07EF2A4408F600F7017708003A031941
:1005D000EA2AEF2A7608CA3A0319DD2AEF2A0B1015
:1005E000172B831203138C1C172B0130FF007F087D
:1005F000FC0716307C06031D162BFC010930A226D1
:1006000071088312BA007008B90001303A029A30BA
:1006100003193902031C112B0230F000F101F10A19
:10062000142B0230F000F101003025258C107B08DE
:10063000FF007A088A0079088400780E8300FE0E95
:100640007E0E0900A5000130A30036080739013EDF
:100650002B2B0310A30DFF3E031D292B2308FF00A6
:10066000340884008317351C83137F088004250811
:10067000A30004300310A30CFF3E031D3A2B2308F4
:100680000F39C3210130A300360CA400A40C240CA4
:100690000739013E4D2B0310A30DFF3E031D4B2BCD
:1006A0002308FF00340884008317351C83137F0858
:1006B00080040C3083120313A300A30B5D2B602B6B
:1006C000013083120313A300360CA400A40C240CE5
:1006D0000739013E6D2B0310A30DFF3E031D6B2B4D
:1006E0002308FF3AFF00340884008317351C831366
:1006F0007F08800525080F39C3210130A300360C7F
:10070000A400A40C240C0739013E882B0310A30D70
:10071000FF3E031D862B2308FF0034088400831747
:10072000351C83137F0880040C3083120313A3004D
:10073000A30B982B9B2B013083120313A300360CC1
:10074000A400A40C240C0739013EA82B0310A30D10
:10075000FF3E031DA62B2308FF3AFF003408840048
:100760008317351C83137F0880050800C830C40038
:10077000A5010A30A600003029208312A501A50A90
:100780000A30A600003029208312A001A101003008
:10079000AF24A001A00AA1010030AF240230A500BF
:1007A0000A30A600003029208312A001A1010030E8
:1007B000AF24A5010C30A600013029208312A50129
:1007C000A50A0C30A6000130292002308312A500B2
:1007D0000C30A60001302920ED20121103309204C4
:1007E000120887394838920083168C1483128C10B3
:1007F0008E30831692008312121591012D308400E1
:100800003F0883138000840A40088000840A41085E
:100810008000840A42088000840A43088000263051
:1008200084002D088000840A2E088000840A2F0886
:100830008000840A30088000840A310880009B25EB
:100840000030FE250130FE258B170B17C930C40080
:10085000BC010830FE250030FE259430A600803013
:10086000A70094270800A4009B2C2108031D482CF6
:100870000130A200200A3E2C0310A20DFF3E031DF2
:100880003C2C2208FF3AFF007F08831685050800EC
:100890000130A200200A4E2C0310A20DFF3E031DC2
:1008A0004C2C2208FF007F088316850408002108CD
:1008B000031D6A2C0130A200200A602C0310A20D37
:1008C000FF3E031D5E2C2208FF3AFF007F088316BF
:1008D000860508000130A200200A702C0310A20D2A
:1008E000FF3E031D6E2C2208FF007F08831686043E
:1008F00008002108031D8C2C0130A200200A822C44
:100900000310A20DFF3E031D802C2208FF3AFF00BA
:100910007F088316870508000130A200200A922C68
:100920000310A20DFF3E031D902C2208FF007F083C
:100930008316870408002408A200A3012308003AB4
:100940000319A32CAE2C2208003A0319352C013AC6
:100950000319572C033A0319792CAE2C0800A40074
:10096000112D2108031DC32C0130A200200ABA2C2E
:100970000310A20DFF3E031DB82C2208FF3AFF0012
:100980007F08850508000130A200200AC92C031049
:10099000A20DFF3E031DC72C2208FF007F0885041F
:1009A00008002108031DE32C0130A200200ADA2CE4
:1009B0000310A20DFF3E031DD82C2208FF3AFF00B2
:1009C0007F08860508000130A200200AE92C0310E8
:1009D000A20DFF3E031DE72C2208FF007F088604BE
:1009E00008002108031D032D0130A200200AFA2C63
:1009F0000310A20DFF3E031DF82C2208FF3AFF0052
:100A00007F08870508000130A200200A092D031085
:100A1000A20DFF3E031D072D2208FF007F0887045B
:100A200008002408A200A3012308003A0319192D85
:100A3000242D2208003A0319B12C013A0319D12CB4
:100A4000033A0319F12C242D0800F400872D7108B6
:100A5000031D392D0130F200700A302D0310F20D04
:100A6000FF3E031D2E2D7208FF3AFF007F0885050B
:100A700008000130F200700A3F2D0310F20DFF3E16
:100A8000031D3D2D7208FF007F08850408007108D2
:100A9000031D592D0130F200700A502D0310F20D84
:100AA000FF3E031D4E2D7208FF3AFF007F088605AA
:100AB00008000130F200700A5F2D0310F20DFF3EB6
:100AC000031D5D2D7208FF007F0886040800710871
:100AD000031D792D0130F200700A702D0310F20D04
:100AE000FF3E031D6E2D7208FF3AFF007F08870549
:100AF00008000130F200700A7F2D0310F20DFF3E56
:100B0000031D7D2D7208FF007F088704080074080C
:100B1000F200F3017308003A03198F2D9A2D720821
:100B2000003A0319272D013A0319472D033A0319F7
:100B3000672D9A2D08003430840026088000840A2E
:100B400027088000840A28088000840A2908800079
:100B5000840A2A08800000303506031DB12D0530B7
:100B60003406031DB62D83168501CA2D00303506C7
:100B7000031DBC2D06303406031DC12D83168601CE
:100B8000CA2D00303506031DC72D073034068316E5
:100B9000031987011A3083120313AC00F830AB003D
:100BA000AB0BD02DAC0BD02D0330FE2507308312BC
:100BB0000313AC007C30AB00AB0BDC2DAC0BDC2D9D
:100BC000E12D0330FE25153083120313AC00C6302F
:100BD000AB00AB0BE92DAC0BE92D0330FE25023049
:100BE000FE250230FE250830FE250030FE250630A9
:100BF000FE250030FE250C30FE250800831203136D
:100C0000A5000130A30036080739013E092E031064
:100C1000A30DFF3E031D072E2308FF3AFF003408F3
:100C200084008317351C83137F0880052508C321A2
:100C30000130A300360CA400A40C240C0739013E9B
:100C4000232E0310A30DFF3E031D212E2308FF00BA
:100C5000340884008317351C83137F088004063012
:100C600083120313A4003030A300A30B352EA40B72
:100C7000352E013083120313A300360CA400A40CFC
:100C8000240C0739013E462E0310A30DFF3E031D21
:100C9000442E2308FF3AFF00340884008317351CD4
:100CA00083137F0880050800A001A101A10A00307C
:100CB000AF240830FE250030FE253630A6008030F7
:100CC000A70094270C30FE250030FE254C30A600EE
:100CD0008030A70094270C30FE250030FE258316B7
:100CE00081128111073081048312AD010B1D762E14
:100CF0002D030319872E14302D060319872E283053
:100D00002D060319872E46302D06031D8C2EAF307D
:100D1000A6008030A70094270B110130FF007F0848
:100D2000AD074C302D02031C762EA001A10100302E
:100D3000AF243B08031D9F2ECC30C4000800CD30EB
:100D4000C4000800F500053075020318BF2E0130FD
:100D5000F200750AAD2E0310F20DFF3E031DAB2EFF
:100D60007208FF007F088316031788047508F200D5
:100D700001300310F20DFF3E031DB92ED82E0130B5
:100D8000F2007508F83E013EC72E0310F20DFF3E3B
:100D9000031DC52E7208FF007F0883160317890400
:100DA0007508F20001300310F20DFF3E031DD32E33
:100DB0000310720DFF007F08831203139F049F141A
:100DC0009F18E02E1E08F40083161E08F300740816
:100DD000F1007308F0000800C8304406031D102F0E
:100DE000B623102F60270800C527080054260800E6
:100DF0000830FE250030FE250130A6008030A70017
:100E000094270C30FE250030FE251430A6008030DB
:100E1000A7009427ED27C830C40008002A2708003F
:100E20004408B200B3013308003A0319182F292FE0
:100E30003208C93A0319F22E033A0319F42E013A83
:100E40000319F62E073A0319F82E013A03190E2F4B
:100E5000292F0800AD013B080319372F0130FF008F
:100E60007F08BB070130FF007F08AD072B2F2D083F
:100E7000303EBD00A001A00AA101A10A0030AF24AC
:100E80000830FE250030FE252530A6008030A70062
:100E900094270C30FE250030FE253D30A6000030A2
:100EA000A70094274730A6008030A7009427ED279D
:100EB000A001A00AA1010030AF24CC30C40008007A
:100EC0000C30FE250030FE257D2F6730A6008030D7
:100ED000A70094270800A230A6008030A70094271E
:100EE00008008530A6008030A700942708007630DF
:100EF000A6008030A700942708003C08AD00AE0192
:100F00002E08003A0319852F932F2D08003A031954
:100F1000652F013A03196B2F033A0319712F013A18
:100F20000319772F932F0800AB01AC012B0826077C
:100F3000A9002708A8000318A80AAB1BA80383125E
:100F400003132808AA002A08FF00290884000021AA
:100F5000003A031908002B082607A9002708A80053
:100F60000318A80AAB1BA803831203132808AA00BE
:100F70002A08FF0029088400002122230130AB0742
:100F80000318AC0A0030AC07962F3B08803A7F3E2E
:100F9000031CE52F3B08303EBD000830FE25003025
:100FA000FE255730A6008030A70094270C30FE2580
:100FB0000030FE253D30A6000030A70094274730C2
:100FC000A6008030A700942708003B08803A7F3EA7
:100FD00003180800CB30C400080031309000763090
:100FE0008F00C8308E00A0010C1CF42F0C100130B3
:100FF000FF007F08A0070A30200203180800F42F22
:08400000FF3FFF3FFF3FFF3FC0
:04400E00F22CFF3F52
:00000001FF
